10101CSL01   0101021паяоу                                             айтг епе                                                                                                                                    0123123123000001231алам                                              34        01442амажг                         0120020102200000001200000001103200000000342131012015                                      
200139852625016702869жаялAйидоу                                        лаяиа                         басикеиос                     алакиа                        25011967042856965
200139852625016702869жаялAйидоу                                        лаяиа                         басикеиос                     алакиа                        25011967042856965
200139852625016702869жаялAйидоу                                        лаяиа                         басикеиос                     алакиа                        25011967042856965
200139852625016702869жаялAйидоу                                        лаяиа                         басикеиос                     алакиа                        25011967042856965
200139852625016702869жаялAйидоу                                        лаяиа                         басикеиос                     алакиа                        25011967042856965
200139852625016702869жаялAйидоу                                        лаяиа                         басикеиос                     алакиа                        25011967042856965
200139852625016702869жаялAйидоу                                        лаяиа                         басикеиос                     алакиа                        25011967042856965
200139852625016702869жаялAйидоу                                        лаяиа                         басикеиос                     алакиа                        25011967042856965
200139852625016702869жаялAйидоу                                        лаяиа                         басикеиос                     алакиа                        25011967042856965
200139852625016702869жаялAйидоу                                        лаяиа                         басикеиос                     алакиа                        25011967042856965
30000008978Kala Krasia                   
EOF